:100000000C9463000C948B000C948B000C948B006C
:100010000C948B000C948B000C948B000C948B0034
:100020000C948B000C948B000C948B000C948B0024
:100030000C948B000C948B000C948B000C948B0014
:100040000C943F020C948B000C940C040C945A04F6
:100050000C948B000C948B000C948B000C948B00F4
:100060000C948B000C948B000000000024002700EF
:100070002A0000000000250028002B0000000000DE
:1000800023002600290004040404040404040202DA
:100090000202020203030303030301020408102007
:1000A0004080010204081020010204081020000012
:1000B0000007000201000003040600000000000029
:1000C00000008D00C60511241FBECFEFD8E0DEBFB3
:1000D000CDBF11E0A0E0B1E0EAEAF2E102C0059094
:1000E0000D92AC36B107D9F712E0ACE6B1E001C031
:1000F0001D92A833B107E1F710E0C6ECD0E004C0D0
:100100002297FE010E944F09C23CD107C9F70E9405
:1001100030020C9453090C940000CF92EF920F938D
:100120008CE691E06CE04BE025E004E053E0E52E46
:1001300032E0C32E0E94D30880914701909148017C
:1001400090938201809381018091490190914A01AD
:1001500090938401809383010F91EF90CF90089545
:100160000F931F930CE611E0C80164E144E020E026
:100170000E941D0887E060E00E94250386E060E0A1
:100180000E942503C80160E071E00E941907C801C0
:1001900060E042E00E94E607C8016DE071E00E9465
:1001A0001907C80160E041E00E94E607609147013D
:1001B00070914801C8014AE050E00E940607C8015A
:1001C00060E043E00E94E6076091490170914A01B6
:1001D000C8014AE050E00E9406071F910F91089560
:1001E00086E192E040E855E260E070E00E9495040C
:1001F0000E94B0000895AF92BF92CF92DF92EF922B
:10020000FF920F931F937C016B015A0106E112E0EC
:10021000C80167E171E00E941907C801B7014AE00F
:1002200050E00E940607C80163E271E00E941907CE
:10023000C801B6014AE050E00E940607C80162E327
:1002400071E00E941907C801B5014AE050E00E9420
:100250000607C80163E471E00E9419071F910F911E
:10026000FF90EF90DF90CF90BF90AF9008950F93E5
:100270001F93CF93DF938C01EB014115510509F0DA
:1002800053C08CE691E060E041E00E94E607013057
:100290001105B1F42097A1F4609181017091820160
:1002A0006831710534F46F5F7F4F70938201609302
:1002B00081018CE691E04AE050E00E9406072FC0E1
:1002C000219769F5012B59F56091810170918201A7
:1002D0006230710534F06150704070938201609318
:1002E00081018CE691E04AE050E00E94060780918F
:1002F0008101909182010A9794F48CE691E061E08B
:1003000041E00E94E6078CE691E065E471E00E941E
:1003100019078CE691E060E041E00E94E60764E6A0
:1003200070E080E090E072C04130510509F070C08B
:100330008CE691E060E043E00E94E60701301105A1
:10034000B9F42097A9F4609183017091840181E050
:100350006C32780734F46F5F7F4F70938401609341
:1003600083018CE691E04AE050E00E9406074AC013
:10037000219709F047C0012B09F044C06091830127
:10038000709184016230710534F061507040709357
:100390008401609383018CE691E04AE050E00E9482
:1003A000060780918301909184018436910594F42D
:1003B0008CE691E062E043E00E94E6078CE691E083
:1003C00065E471E00E9419078CE691E060E043E08B
:1003D0000E94E60780918301909184010A9794F42A
:1003E0008CE691E061E043E00E94E6078CE691E054
:1003F00065E471E00E9419078CE691E060E043E05B
:100400000E94E60766E970E080E090E00E948702C3
:10041000DF91CF911F910F910895CF92DF92EF92CC
:10042000FF920F931F9387E00E94B8036C0186E050
:100430000E94B8037C0188E00E94B8038C01C601C9
:10044000B701A8010E94FB00C601B701A8010E94E4
:1004500037011F910F91FF90EF90DF90CF9008959B
:10046000CF93DF930E94EA020E94F000C7E4D4E039
:100470000E940D022097E1F30E944704F9CF1F92DA
:100480000F920FB60F9211242F933F938F939F9348
:10049000AF93BF938091890190918A01A0918B01C4
:1004A000B0918C0130918D010196A11DB11D232FBA
:1004B0002D5F2D3720F02D570196A11DB11D2093E2
:1004C0008D018093890190938A01A0938B01B09351
:1004D0008C018091850190918601A0918701B09156
:1004E00088010196A11DB11D80938501909386011D
:1004F000A0938701B0938801BF91AF919F918F9195
:100500003F912F910F900FBE0F901F9018959B0158
:10051000AC017FB7F8948091850190918601A091FC
:100520008701B091880166B5A89B05C06F3F19F09F
:100530000196A11DB11D7FBFBA2FA92F982F882723
:10054000860F911DA11DB11D62E0880F991FAA1F82
:10055000BB1F6A95D1F7BC012DC0FFB7F8948091FD
:10056000850190918601A0918701B0918801E6B53F
:10057000A89B05C0EF3F19F00196A11DB11DFFBF5B
:10058000BA2FA92F982F88278E0F911DA11DB11D5D
:10059000E2E0880F991FAA1FBB1FEA95D1F7861BBF
:1005A000970B885E9340C8F2215030404040504045
:1005B00068517C4F211531054105510571F60895AB
:1005C000019739F0880F991F880F991F029701979B
:1005D000F1F70895789484B5826084BD84B5816014
:1005E00084BD85B5826085BD85B5816085BDEEE63B
:1005F000F0E0808181608083E1E8F0E0108280811A
:1006000082608083808181608083E0E8F0E0808187
:1006100081608083E1EBF0E0808184608083E0EBA7
:10062000F0E0808181608083EAE7F0E0808184608F
:1006300080838081826080838081816080838081EB
:10064000806880831092C1000895CF93DF93482F74
:1006500050E0CA0186569F4FFC0134914A575F4FC4
:10066000FA018491882369F190E0880F991FFC01B9
:10067000E859FF4FA591B491FC01EE58FF4FC59189
:10068000D491662351F42FB7F8948C91932F9095C1
:1006900089238C93888189230BC0623061F42FB742
:1006A000F8948C91932F909589238C938881832B38
:1006B00088832FBF06C09FB7F8948C91832B8C93AF
:1006C0009FBFDF91CF910895482F50E0CA01825516
:1006D0009F4FFC012491CA0186569F4FFC019491C3
:1006E0004A575F4FFA013491332309F440C0222363
:1006F00051F1233071F0243028F42130A1F0223060
:1007000011F514C02630B1F02730C1F02430D9F4EF
:1007100004C0809180008F7703C0809180008F7D1E
:100720008093800010C084B58F7702C084B58F7D20
:1007300084BD09C08091B0008F7703C08091B00064
:100740008F7D8093B000E32FF0E0EE0FFF1FEE5897
:10075000FF4FA591B4912FB7F894662321F48C91A3
:100760009095892302C08C91892B8C932FBF08957B
:10077000682F70E0CB0182559F4FFC012491CB0183
:1007800086569F4FFC0144916A577F4FFB0194911D
:10079000992319F420E030E03CC0222351F12330AA
:1007A00071F0243028F42130A1F0223011F514C06A
:1007B0002630B1F02730C1F02430D9F404C0809144
:1007C00080008F7703C0809180008F7D80938000B0
:1007D00010C084B58F7702C084B58F7D84BD09C0F9
:1007E0008091B0008F7703C08091B0008F7D80939F
:1007F000B000892F90E0880F991F84589F4FFC010B
:10080000A591B4918C9120E030E0842311F021E097
:1008100030E0C901089508951F920F920FB60F920C
:1008200011242F933F934F938F939F93EF93FF93B5
:100830008091C00082FD1DC04091C6002091CE0174
:100840003091CF012F5F3F4F2F7330708091D001D7
:100850009091D1012817390771F0E091CE01F09104
:10086000CF01E257FE4F40833093CF012093CE015A
:1008700002C08091C600FF91EF919F918F914F919F
:100880003F912F910F900FBE0F901F901895E09100
:100890002202F0912302E05CFF4F8191919120812F
:1008A0003181821B930B8F739070892B11F00E9402
:1008B0000B0408951F920F920FB60F9211242F93DD
:1008C0003F938F939F93EF93FF9320911202309168
:1008D000130280911402909115022817390731F400
:1008E0008091C1008F7D8093C10014C0E0911402FB
:1008F000F0911502EE52FE4F2081809114029091EA
:10090000150201968F7390709093150280931402D4
:100910002093C600FF91EF919F918F913F912F916E
:100920000F900FBE0F901F901895AF92BF92DF925D
:10093000EF92FF920F931F93CF93DF93EC017A0115
:100940008B01DD24403081EE580780E0680780E0AD
:10095000780711F0DD24D39491E0A92EB12CEC8915
:10096000FD89DD2069F0C50108A002C0880F991F2C
:100970000A94E2F7808360E079E08DE390E005C0BF
:10098000108260E874E88EE190E0A80197010E946F
:100990002B0921503040404050405695479537959F
:1009A000279580E12030380720F0DD2011F0DD248C
:1009B000D6CFE889F9893083EA89FB89208319A297
:1009C000EE89FF89408121E030E0C9010C8C02C032
:1009D000880F991F0A94E2F7482B4083EE89FF891C
:1009E0004081C9010D8C02C0880F991F0A94E2F75B
:1009F000482B4083EE89FF894081C9010E8C02C0DB
:100A0000880F991F0A94E2F7482B4083EE89FF89EB
:100A100080810F8C02C0220F331F0A94E2F72095C9
:100A200028232083DF91CF911F910F91FF90EF90AA
:100A3000DF90BF90AF900895DC011C96ED91FC9182
:100A40001D97E05CFF4F2191319180819181281B9E
:100A5000390B2F733070C9010895DC011C96ED919C
:100A6000FC911D97E05CFF4F20813181E054F04004
:100A7000DF01AE5BBF4F8D919C911197281739070D
:100A800019F42FEF3FEF07C08D919C91E80FF91FEC
:100A90008081282F30E0C9010895DC011C96ED917A
:100AA000FC911D97E05CFF4F20813181E054F040C4
:100AB000DF01AE5BBF4F8D919C91119728173907CD
:100AC00019F42FEF3FEF10C08D919C911197E80F13
:100AD000F91F20818D919C91119701968F739070D1
:100AE00011969C938E9330E0C9010895DC01919694
:100AF0008C919197882339F05496ED91FC915597FC
:100B0000808186FFF9CF91961C920895CF93DF9351
:100B1000EC01EE85FF85E05CFF4F20813181E054E0
:100B2000F0402F5F3F4F2F733070DF01AE5BBF4F40
:100B30008D919C91119728173907D1F3E05CFF4FF5
:100B400080819181E054F040E80FF91F6083EE85C9
:100B5000FF85E05CFF4F31832083EE89FF89208190
:100B600081E090E00F8C02C0880F991F0A94E2F791
:100B7000282B208381E089A3EC89FD898081806412
:100B8000808381E090E0DF91CF9108951092190267
:100B90001092180288EE93E0A0E0B0E080931A0271
:100BA00090931B02A0931C02B0931D028FE491E06E
:100BB00090931702809316028EE891E0909323029F
:100BC0008093220282ED91E090932502809324028B
:100BD00085EC90E0909327028093260284EC90E0CD
:100BE000909329028093280280EC90E090932B024E
:100BF00080932A0281EC90E090932D0280932C0246
:100C000082EC90E090932F0280932E0286EC90E08D
:100C1000909331028093300284E08093320283E02B
:100C20008093330287E08093340285E0809335021D
:100C300081E0809336020895CF92DF92EF92FF9287
:100C40000F931F93CF93DF937C016B018A01C0E068
:100C5000D0E00FC0D6016D916D01D701ED91FC91EF
:100C60000190F081E02DC7010995C80FD91F0150EF
:100C700010400115110571F7CE01DF91CF911F9141
:100C80000F91FF90EF90DF90CF900895CF93DF9377
:100C9000EC016115710519F420E030E00FC0DB01B3
:100CA0000D900020E9F71197A61BB70BE881F98199
:100CB0000280F381E02DAD0109959C01C901DF910E
:100CC000CF9108954F925F927F928F929F92AF92B1
:100CD000BF92CF92DF92EF92FF920F931F93DF9319
:100CE000CF93CDB7DEB7A1970FB6F894DEBF0FBE96
:100CF000CDBF2C01742ECB01223008F42AE019A2BA
:100D000031E2C32ED12CCC0EDD1E822E9924AA24D2
:100D1000BB24672D752FA50194010E942B09790131
:100D20008A01C801B701A50194010E940C09472D51
:100D3000461B0894C108D1084A3014F4405D01C034
:100D4000495CF6014083E114F1040105110521F02D
:100D50007E2C5F2DC801DDCFC201B6010E94460680
:100D6000A1960FB6F894DEBF0FBECDBFCF91DF9135
:100D70001F910F91FF90EF90DF90CF90BF90AF90B9
:100D80009F908F907F905F904F900895CF92DF92C9
:100D9000EF92FF920F931F93CF93DF93EC016A01C1
:100DA0007B012115310541F4E881F9810190F08141
:100DB000E02D642F09951FC02A303105D1F477FF4B
:100DC00017C0E881F9810190F081E02D6DE209956D
:100DD0008C0144275527BA014C195D096E097F091A
:100DE000CE012AE00E9462069801280F391F04C034
:100DF0002AE00E9462069C01C901DF91CF911F91F8
:100E00000F91FF90EF90DF90CF900895EF92FF92B7
:100E10000F931F937B019A010027F7FC0095102F79
:100E2000B801A7010E94C6061F910F91FF90EF9095
:100E300008950E94460608950F931F938C01FC01AC
:100E4000868160E00E94640381E090E00E94E002FD
:100E5000F801868161E00E94640381E090E00E94D5
:100E6000E002F801868160E00E94640384E690E07D
:100E70000E94E0021F910F910895CF92DF92EF92AE
:100E8000FF920F931F93CF93DF93D82EC92E282F55
:100E9000392FC9018C01C0E0D0E0E62EFF24F80113
:100EA000878161E00E942503B7010C2E02C0759571
:100EB00067950A94E2F76170F80187810E946403E4
:100EC00021960F5F1F4FC830D10549F78D2D9C2DFE
:100ED0000E941C07DF91CF911F910F91FF90EF901F
:100EE000DF90CF900895CF92DF92EF92FF920F9311
:100EF0001F93CF93DF93D82EC92E282F392FC901E6
:100F00008C01C0E0D0E0E62EFF24F801878161E08B
:100F10000E942503B7010C2E02C0759567950A94AF
:100F2000E2F76170F80187810E94640321960F5FE8
:100F30001F4FC430D10549F78D2D9C2D0E941C07F1
:100F4000DF91CF911F910F91FF90EF90DF90CF90A5
:100F500008951F93CF93DF93EC01162F8C81642F9C
:100F60000E9464038D818F3F19F060E00E9464034A
:100F70008F8584FF05C0CE01612F0E943D070EC002
:100F8000612F70E084E0759567958A95E1F7CE0151
:100F90000E947307CE01612F0E947307DF91CF91EA
:100FA0001F91089541E00E94A90781E090E0089513
:100FB00040E00E94A9070895FC016089862F8460A3
:100FC000808B6C60CF010E94D8070895DF93CF9388
:100FD000CDB7DEB728970FB6F894DEBF0FBECDBFF2
:100FE0009C01FE013196A3E6B1E088E00D900192EC
:100FF0008150E1F7F9018389481710F0482F4150DB
:10100000E42FF0E0EE0FFF1FEC0FFD1F8181680F52
:101010006068C9010E94D80728960FB6F894DEBF11
:101020000FBECDBFCF91DF91089561E00E94D80738
:1010300080ED97E00E94E0020895CF93DF93EC01EA
:10104000423018F08F8588608F874B8B1C8A222353
:1010500029F0413019F48F8584608F8780E593EC07
:101060000E94E0028C8160E00E9464038E8160E057
:101070000E9464038D818F3F19F060E00E94640339
:101080006F8564FD1DC0CE0163E00E94730784E993
:1010900091E10E94E002CE0163E00E94730784E9BF
:1010A00091E10E94E002CE0163E00E94730786E9AD
:1010B00090E00E94E002CE0162E00E94730716C039
:1010C0006062CE010E94D80784E991E10E94E002AB
:1010D0006F856062CE010E94D80786E990E00E9489
:1010E000E0026F856062CE010E94D8076F85606262
:1010F000CE010E94D80784E0888BCE010E94DC07D5
:10110000CE010E94150882E0898BCE0166E00E9424
:10111000D807DF91CF9108956F927F928F92AF920F
:10112000CF92EF920F931F93DF93CF93CDB7DEB79C
:101130003C01162F842FF301448325830683E78225
:10114000C086A18682869D8593879E8594879F858C
:1011500095879889968761E00E942503F301858130
:101160008F3F19F061E00E942503F301868161E061
:101170000E942503112319F0F301178603C080E1B3
:10118000F3018787C30160E141E020E00E941D0870
:10119000CF91DF911F910F91EF90CF90AF908F90F3
:1011A0007F906F9008958F92AF92CF92EF920F93AE
:1011B0001F93CF93DF93DC01362F542F722F102F04
:1011C000AE2C8C2C13961C921E9212978FE591E0F8
:1011D00011969C938E9300D000D0EDB7FEB7319658
:1011E000CDB7DEB71982118212821382CD0161E080
:1011F000432F2FEF052FE72EC12E0E948C080F9052
:101200000F900F900F90DF91CF911F910F91EF9062
:10121000CF90AF908F900895629FD001739FF0019F
:10122000829FE00DF11D649FE00DF11D929FF00D76
:10123000839FF00D749FF00D659FF00D9927729FAD
:10124000B00DE11DF91F639FB00DE11DF91FBD0138
:10125000CF0111240895A1E21A2EAA1BBB1BFD0188
:101260000DC0AA1FBB1FEE1FFF1FA217B307E40785
:10127000F50720F0A21BB30BE40BF50B661F771FDD
:10128000881F991F1A9469F76095709580959095BD
:101290009B01AC01BD01CF010895EE0FFF1F05902A
:0A12A000F491E02D0994F894FFCFBB
:1012AA00546F74616C20686F7572733A00496E747A
:1012BA00657276616C3A00557020427574746F6E6F
:1012CA003A200020446F776E20427574746F6E3A2C
:1012DA0020002053656C65637420427574746F6EC8
:1012EA003A20000A002000010001000000000086E8
:1012FA00051C061C054D052D05760500000000D2CB
:0C130A00071C0600004000140054000006
:00000001FF
