:100000000C9463000C948B000C948B000C948B006C
:100010000C948B000C948B000C948B000C948B0034
:100020000C948B000C948B000C948B000C948B0024
:100030000C948B000C948B000C948B000C948B0014
:100040000C942F020C948B000C94FC030C944A0427
:100050000C948B000C948B000C948B000C948B00F4
:100060000C948B000C948B000000000024002700EF
:100070002A0000000000250028002B0000000000DE
:1000800023002600290004040404040404040202DA
:100090000202020203030303030301020408102007
:1000A0004080010204081020010204081020000012
:1000B0000007000201000003040600000000000029
:1000C00000008D00B60511241FBECFEFD8E0DEBFC3
:1000D000CDBF11E0A0E0B1E0EAE8F2E102C0059096
:1000E0000D92AC36B107D9F712E0ACE6B1E001C031
:1000F0001D92A433B107E1F710E0C6ECD0E004C0D4
:100100002297FE010E943F09C23CD107C9F70E9415
:1001100020020C9443090C940000CF92EF920F93AD
:100120008CE691E06CE04BE025E004E053E0E52E46
:1001300032E0C32E0E94C3080F91EF90CF90089534
:100140000F931F930CE611E0C80164E144E020E046
:100150000E940D0887E060E00E94150386E060E0E1
:100160000E941503C80160E071E00E940907C80100
:1001700060E042E00E94D607C8016DE071E00E9495
:100180000907C80160E041E00E94D607609147017D
:1001900070914801C8014AE050E00E94F606C8018B
:1001A00060E043E00E94D6076091490170914A01E6
:1001B000C8014AE050E00E94F6061F910F91089591
:1001C00082E192E040E855E260E070E00E94850440
:1001D0000E94A0000895AF92BF92CF92DF92EF925B
:1001E000FF920F931F937C016B015A0102E112E011
:1001F000C80167E171E00E940907C801B7014AE040
:1002000050E00E94F606C80163E271E00E9409070F
:10021000C801B6014AE050E00E94F606C80162E358
:1002200071E00E940907C801B5014AE050E00E9450
:10023000F606C80163E471E00E9409071F910F915F
:10024000FF90EF90DF90CF90BF90AF9008950F9305
:100250001F93CF93DF938C01EB014115510509F0FA
:1002600053C08CE691E060E041E00E94D607013087
:100270001105B1F42097A1F46091470170914801F4
:100280006831710534F46F5F7F4F7093480160935C
:1002900047018CE691E04AE050E00E94F6062FC04C
:1002A000219769F5012B59F560914701709148013B
:1002B0006230710534F06150704070934801609372
:1002C00047018CE691E04AE050E00E94F6068091FA
:1002D0004701909148010A9794F48CE691E061E01F
:1002E00041E00E94D6078CE691E065E471E00E944F
:1002F00009078CE691E060E041E00E94D60764E6E1
:1003000070E080E090E072C04130510509F070C0AB
:100310008CE691E060E043E00E94D60701301105D1
:10032000B9F42097A9F46091490170914A0181E0E4
:100330006C32780734F46F5F7F4F70934A0160939B
:1003400049018CE691E04AE050E00E94F6064AC07E
:10035000219709F047C0012B09F044C06091490181
:1003600070914A016230710534F0615070407093B1
:100370004A01609349018CE691E04AE050E00E9416
:10038000F6068091490190914A018436910594F4D2
:100390008CE691E062E043E00E94D6078CE691E0B3
:1003A00065E471E00E9409078CE691E060E043E0BB
:1003B0000E94D6078091490190914A010A9794F4CE
:1003C0008CE691E061E043E00E94D6078CE691E084
:1003D00065E471E00E9409078CE691E060E043E08B
:1003E0000E94D60766E970E080E090E00E94770204
:1003F000DF91CF911F910F910895CF92DF92EF92ED
:10040000FF920F931F9387E00E94A8036C0186E080
:100410000E94A8037C0188E00E94A8038C01C60109
:10042000B701A8010E94EB00C601B701A8010E9414
:1004300027011F910F91FF90EF90DF90CF900895CB
:10044000CF93DF930E94DA020E94E000C7E3D4E07A
:100450000E94FD012097E1F30E943704F9CF1F921B
:100460000F920FB60F9211242F933F938F939F9368
:10047000AF93BF938091850190918601A0918701F0
:10048000B0918801309189010196A11DB11D232FE2
:100490002D5F2D3720F02D570196A11DB11D209302
:1004A00089018093850190938601A0938701B09381
:1004B00088018091810190918201A0918301B09186
:1004C00084010196A11DB11D809381019093820149
:1004D000A0938301B0938401BF91AF919F918F91BD
:1004E0003F912F910F900FBE0F901F9018959B0179
:1004F000AC017FB7F8948091810190918201A09125
:100500008301B091840166B5A89B05C06F3F19F0C7
:100510000196A11DB11D7FBFBA2FA92F982F882743
:10052000860F911DA11DB11D62E0880F991FAA1FA2
:10053000BB1F6A95D1F7BC012DC0FFB7F89480911D
:10054000810190918201A0918301B0918401E6B56F
:10055000A89B05C0EF3F19F00196A11DB11DFFBF7B
:10056000BA2FA92F982F88278E0F911DA11DB11D7D
:10057000E2E0880F991FAA1FBB1FEA95D1F7861BDF
:10058000970B885E9340C8F2215030404040504065
:1005900068517C4F211531054105510571F60895CB
:1005A000019739F0880F991F880F991F02970197BB
:1005B000F1F70895789484B5826084BD84B5816034
:1005C00084BD85B5826085BD85B5816085BDEEE65B
:1005D000F0E0808181608083E1E8F0E0108280813A
:1005E00082608083808181608083E0E8F0E08081A8
:1005F00081608083E1EBF0E0808184608083E0EBC8
:10060000F0E0808181608083EAE7F0E080818460AF
:10061000808380818260808380818160808380810B
:10062000806880831092C1000895CF93DF93482F94
:1006300050E0CA0186569F4FFC0134914A575F4FE4
:10064000FA018491882369F190E0880F991FFC01D9
:10065000E859FF4FA591B491FC01EE58FF4FC591A9
:10066000D491662351F42FB7F8948C91932F9095E1
:1006700089238C93888189230BC0623061F42FB762
:10068000F8948C91932F909589238C938881832B58
:1006900088832FBF06C09FB7F8948C91832B8C93CF
:1006A0009FBFDF91CF910895482F50E0CA01825536
:1006B0009F4FFC012491CA0186569F4FFC019491E3
:1006C0004A575F4FFA013491332309F440C0222383
:1006D00051F1233071F0243028F42130A1F0223080
:1006E00011F514C02630B1F02730C1F02430D9F410
:1006F00004C0809180008F7703C0809180008F7D3F
:100700008093800010C084B58F7702C084B58F7D40
:1007100084BD09C08091B0008F7703C08091B00084
:100720008F7D8093B000E32FF0E0EE0FFF1FEE58B7
:10073000FF4FA591B4912FB7F894662321F48C91C3
:100740009095892302C08C91892B8C932FBF08959B
:10075000682F70E0CB0182559F4FFC012491CB01A3
:1007600086569F4FFC0144916A577F4FFB0194913D
:10077000992319F420E030E03CC0222351F12330CA
:1007800071F0243028F42130A1F0223011F514C08A
:100790002630B1F02730C1F02430D9F404C0809164
:1007A00080008F7703C0809180008F7D80938000D0
:1007B00010C084B58F7702C084B58F7D84BD09C019
:1007C0008091B0008F7703C08091B0008F7D8093BF
:1007D000B000892F90E0880F991F84589F4FFC012B
:1007E000A591B4918C9120E030E0842311F021E0B8
:1007F00030E0C901089508951F920F920FB60F922D
:1008000011242F933F934F938F939F93EF93FF93D5
:100810008091C00082FD1DC04091C6002091CA0198
:100820003091CB012F5F3F4F2F7330708091CC01FF
:100830009091CD012817390771F0E091CA01F0912C
:10084000CB01E657FE4F40833093CB012093CA0182
:1008500002C08091C600FF91EF919F918F914F91BF
:100860003F912F910F900FBE0F901F901895E09120
:100870001E02F0911F02E05CFF4F81919191208157
:100880003181821B930B8F739070892B11F00E9422
:10089000FB0308951F920F920FB60F9211242F930E
:1008A0003F938F939F93EF93FF9320910E0230918C
:1008B0000F0280911002909111022817390731F42C
:1008C0008091C1008F7D8093C10014C0E09110021F
:1008D000F0911102E253FE4F20818091100290911D
:1008E000110201968F739070909311028093100201
:1008F0002093C600FF91EF919F918F913F912F918F
:100900000F900FBE0F901F901895AF92BF92DF927D
:10091000EF92FF920F931F93CF93DF93EC017A0135
:100920008B01DD24403081EE580780E0680780E0CD
:10093000780711F0DD24D39491E0A92EB12CEC8935
:10094000FD89DD2069F0C50108A002C0880F991F4C
:100950000A94E2F7808360E079E08DE390E005C0DF
:10096000108260E874E88EE190E0A80197010E948F
:100970001B092150304040405040569547953795CF
:10098000279580E12030380720F0DD2011F0DD24AC
:10099000D6CFE889F9893083EA89FB89208319A2B7
:1009A000EE89FF89408121E030E0C9010C8C02C052
:1009B000880F991F0A94E2F7482B4083EE89FF893C
:1009C0004081C9010D8C02C0880F991F0A94E2F77B
:1009D000482B4083EE89FF894081C9010E8C02C0FB
:1009E000880F991F0A94E2F7482B4083EE89FF890C
:1009F00080810F8C02C0220F331F0A94E2F72095EA
:100A000028232083DF91CF911F910F91FF90EF90CA
:100A1000DF90BF90AF900895DC011C96ED91FC91A2
:100A20001D97E05CFF4F2191319180819181281BBE
:100A3000390B2F733070C9010895DC011C96ED91BC
:100A4000FC911D97E05CFF4F20813181E054F04024
:100A5000DF01AE5BBF4F8D919C911197281739072D
:100A600019F42FEF3FEF07C08D919C91E80FF91F0C
:100A70008081282F30E0C9010895DC011C96ED919A
:100A8000FC911D97E05CFF4F20813181E054F040E4
:100A9000DF01AE5BBF4F8D919C91119728173907ED
:100AA00019F42FEF3FEF10C08D919C911197E80F33
:100AB000F91F20818D919C91119701968F739070F1
:100AC00011969C938E9330E0C9010895DC019196B4
:100AD0008C919197882339F05496ED91FC9155971C
:100AE000808186FFF9CF91961C920895CF93DF9372
:100AF000EC01EE85FF85E05CFF4F20813181E05401
:100B0000F0402F5F3F4F2F733070DF01AE5BBF4F60
:100B10008D919C91119728173907D1F3E05CFF4F15
:100B200080819181E054F040E80FF91F6083EE85E9
:100B3000FF85E05CFF4F31832083EE89FF892081B0
:100B400081E090E00F8C02C0880F991F0A94E2F7B1
:100B5000282B208381E089A3EC89FD898081806432
:100B6000808381E090E0DF91CF910895109215028B
:100B70001092140288EE93E0A0E0B0E08093160299
:100B800090931702A0931802B09319028FE491E09A
:100B900090931302809312028AE891E090931F02CF
:100BA00080931E028EEC91E09093210280932002AC
:100BB00085EC90E0909323028093220284EC90E0F5
:100BC000909325028093240280EC90E0909327027A
:100BD0008093260281EC90E0909329028093280272
:100BE00082EC90E090932B0280932A0286EC90E0B6
:100BF00090932D0280932C0284E080932E0283E058
:100C000080932F0287E08093300285E08093310249
:100C100081E0809332020895CF92DF92EF92FF92AB
:100C20000F931F93CF93DF937C016B018A01C0E088
:100C3000D0E00FC0D6016D916D01D701ED91FC910F
:100C40000190F081E02DC7010995C80FD91F01500F
:100C500010400115110571F7CE01DF91CF911F9161
:100C60000F91FF90EF90DF90CF900895CF93DF9397
:100C7000EC016115710519F420E030E00FC0DB01D3
:100C80000D900020E9F71197A61BB70BE881F981B9
:100C90000280F381E02DAD0109959C01C901DF912E
:100CA000CF9108954F925F927F928F929F92AF92D1
:100CB000BF92CF92DF92EF92FF920F931F93DF9339
:100CC000CF93CDB7DEB7A1970FB6F894DEBF0FBEB6
:100CD000CDBF2C01742ECB01223008F42AE019A2DA
:100CE00031E2C32ED12CCC0EDD1E822E9924AA24F3
:100CF000BB24672D752FA50194010E941B09790162
:100D00008A01C801B701A50194010E94FC08472D82
:100D1000461B0894C108D1084A3014F4405D01C054
:100D2000495CF6014083E114F1040105110521F04D
:100D30007E2C5F2DC801DDCFC201B6010E943606B0
:100D4000A1960FB6F894DEBF0FBECDBFCF91DF9155
:100D50001F910F91FF90EF90DF90CF90BF90AF90D9
:100D60009F908F907F905F904F900895CF92DF92E9
:100D7000EF92FF920F931F93CF93DF93EC016A01E1
:100D80007B012115310541F4E881F9810190F08161
:100D9000E02D642F09951FC02A303105D1F477FF6B
:100DA00017C0E881F9810190F081E02D6DE209958D
:100DB0008C0144275527BA014C195D096E097F093A
:100DC000CE012AE00E9452069801280F391F04C064
:100DD0002AE00E9452069C01C901DF91CF911F9128
:100DE0000F91FF90EF90DF90CF900895EF92FF92D8
:100DF0000F931F937B019A010027F7FC0095102F9A
:100E0000B801A7010E94B6061F910F91FF90EF90C5
:100E100008950E94360608950F931F938C01FC01DC
:100E2000868160E00E94540381E090E00E94D0023D
:100E3000F801868161E00E94540381E090E00E9405
:100E4000D002F801868160E00E94540384E690E0BD
:100E50000E94D0021F910F910895CF92DF92EF92DE
:100E6000FF920F931F93CF93DF93D82EC92E282F75
:100E7000392FC9018C01C0E0D0E0E62EFF24F80133
:100E8000878161E00E941503B7010C2E02C07595A1
:100E900067950A94E2F76170F80187810E94540314
:100EA00021960F5F1F4FC830D10549F78D2D9C2D1E
:100EB0000E940C07DF91CF911F910F91FF90EF904F
:100EC000DF90CF900895CF92DF92EF92FF920F9331
:100ED0001F93CF93DF93D82EC92E282F392FC90106
:100EE0008C01C0E0D0E0E62EFF24F801878161E0AC
:100EF0000E941503B7010C2E02C0759567950A94E0
:100F0000E2F76170F80187810E94540321960F5F18
:100F10001F4FC430D10549F78D2D9C2D0E940C0721
:100F2000DF91CF911F910F91FF90EF90DF90CF90C5
:100F300008951F93CF93DF93EC01162F8C81642FBC
:100F40000E9454038D818F3F19F060E00E9454038A
:100F50008F8584FF05C0CE01612F0E942D070EC032
:100F6000612F70E084E0759567958A95E1F7CE0171
:100F70000E946307CE01612F0E946307DF91CF912A
:100F80001F91089541E00E94990781E090E0089543
:100F900040E00E9499070895FC016089862F8460D3
:100FA000808B6C60CF010E94C8070895DF93CF93B8
:100FB000CDB7DEB728970FB6F894DEBF0FBECDBF12
:100FC0009C01FE013196A3E6B1E088E00D9001920C
:100FD0008150E1F7F9018389481710F0482F4150FB
:100FE000E42FF0E0EE0FFF1FEC0FFD1F8181680F73
:100FF0006068C9010E94C80728960FB6F894DEBF42
:101000000FBECDBFCF91DF91089561E00E94C80768
:1010100080ED97E00E94D0020895CF93DF93EC011A
:10102000423018F08F8588608F874B8B1C8A222373
:1010300029F0413019F48F8584608F8780E593EC27
:101040000E94D0028C8160E00E9454038E8160E097
:101050000E9454038D818F3F19F060E00E94540379
:101060006F8564FD1DC0CE0163E00E94630784E9C3
:1010700091E10E94D002CE0163E00E94630784E9FF
:1010800091E10E94D002CE0163E00E94630786E9ED
:1010900090E00E94D002CE0162E00E94630716C079
:1010A0006062CE010E94C80784E991E10E94D002EB
:1010B0006F856062CE010E94C80786E990E00E94B9
:1010C000D0026F856062CE010E94C8076F856062A2
:1010D000CE010E94C80784E0888BCE010E94CC0715
:1010E000CE010E94050882E0898BCE0166E00E9455
:1010F000C807DF91CF9108956F927F928F92AF9240
:10110000CF92EF920F931F93DF93CF93CDB7DEB7BC
:101110003C01162F842FF301448325830683E78245
:10112000C086A18682869D8593879E8594879F85AC
:1011300095879889968761E00E941503F301858160
:101140008F3F19F061E00E941503F301868161E091
:101150000E941503112319F0F301178603C080E1E3
:10116000F3018787C30160E141E020E00E940D08A0
:10117000CF91DF911F910F91EF90CF90AF908F9013
:101180007F906F9008958F92AF92CF92EF920F93CE
:101190001F93CF93DF93DC01362F542F722F102F24
:1011A000AE2C8C2C13961C921E9212978FE591E018
:1011B00011969C938E9300D000D0EDB7FEB7319678
:1011C000CDB7DEB71982118212821382CD0161E0A0
:1011D000432F2FEF052FE72EC12E0E947C080F9082
:1011E0000F900F900F90DF91CF911F910F91EF9083
:1011F000CF90AF908F900895629FD001739FF001C0
:10120000829FE00DF11D649FE00DF11D929FF00D96
:10121000839FF00D749FF00D659FF00D9927729FCD
:10122000B00DE11DF91F639FB00DE11DF91FBD0158
:10123000CF0111240895A1E21A2EAA1BBB1BFD01A8
:101240000DC0AA1FBB1FEE1FFF1FA217B307E407A5
:10125000F50720F0A21BB30BE40BF50B661F771FFD
:10126000881F991F1A9469F76095709580959095DD
:101270009B01AC01BD01CF010895EE0FFF1F05904A
:0A128000F491E02D0994F894FFCFDB
:10128A00546F74616C20686F7572733A00496E749A
:10129A00657276616C3A00557020427574746F6E8F
:1012AA003A200020446F776E20427574746F6E3A4C
:1012BA0020002053656C65637420427574746F6EE8
:1012CA003A20000A00200001000100000000007618
:1012DA00050C060C053D051D05660500000000C24B
:0C12EA00070C0600004000140054000037
:00000001FF
