:100000000C9463000C948B000C948B000C948B006C
:100010000C948B000C948B000C948B000C948B0034
:100020000C948B000C948B000C948B000C948B0024
:100030000C948B000C948B000C948B000C948B0014
:100040000C9443030C948B000C942A040C947804B5
:100050000C948B000C948B000C948B000C948B00F4
:100060000C948B000C948B000000000024002700EF
:100070002A0000000000250028002B0000000000DE
:1000800023002600290004040404040404040202DA
:100090000202020203030303030301020408102007
:1000A0004080010204081020010204081020000012
:1000B0000007000201000003040600000000000029
:1000C00000008D00E40511241FBECFEFD8E0DEBF95
:1000D000CDBF11E0A0E0B1E0E2E6F5E102C005909D
:1000E0000D92A438B107D9F712E0A4E8B1E001C03D
:1000F0001D92A735B107E1F710E0C6ECD0E004C0CF
:100100002297FE010E94AB0AC23CD107C9F70E94A8
:1001100034030C94AF0A0C940000CF92EF920F932B
:1001200084E891E06CE04BE025E004E053E0E52E4C
:1001300032E0C32E0E94F10889E991E067E040E0D7
:100140000E9465098CE991E066E040E00E94650943
:100150008FE991E068E040E00E9465090F91EF901F
:10016000CF9008950F931F9305E312E0C80160E05C
:1001700071E00E94370789E991E00E943309682FF6
:10018000C80170E04AE050E00E942407C80162E123
:1001900071E00E9437078CE991E00E943309682FD3
:1001A000C80170E04AE050E00E942407C80167E2FD
:1001B00071E00E9437078FE991E00E943309682FB0
:1001C000C80170E04AE050E00E942407C80168E3DB
:1001D00071E00E9437076091A2017091A301C801EC
:1001E0004AE050E00E942407C80162E471E00E94E6
:1001F00037071F910F9108958091A2019091A3015B
:10020000892B09F05DC08CE991E00E942A098823BE
:1002100009F4BCC08CE991E00E943309882309F4F9
:10022000B5C060915F0170916001623071050CF49E
:10023000ADC0615070407093600160935F0184E8CD
:1002400091E04AE050E00E94240764EF71E080E012
:1002500090E034C08CE991E00E943309882381F159
:1002600080915F0190916001823091054CF101977E
:100270009093600180935F010A9794F484E891E081
:1002800061E041E00E94040884E891E064E471E0E8
:100290000E94370784E891E060E041E00E94040892
:1002A00060915F017091600184E891E04AE050E064
:1002B0000E94240766E970E080E090E00E948B03D2
:1002C0008091A2019091A301019709F06EC08CE981
:1002D00091E00E942A09882309F460C08CE991E02A
:1002E0000E943309882309F459C06091610170911B
:1002F0006201623071050CF451C06150704070931E
:1003000062016093610184E891E04AE050E00E945C
:10031000240764EF71E080E090E035C08CE991E063
:100320000E943309882309F440C0809161019091B3
:10033000620182309105CCF1019790936201809324
:1003400061010A9794F484E891E061E041E00E9441
:10035000040884E891E064E471E00E94370784E8CF
:1003600091E060E041E00E940408609161017091B9
:10037000620184E891E04AE050E00E94240766E9C7
:1003800070E080E090E00E948B0308958CE991E09A
:100390000E942A09882309F093CF5CCF8CE991E071
:1003A0000E942A09882309F4B9CF08958091A201F7
:1003B0009091A301892B09F04CC084E891E060E0A2
:1003C00041E00E94040889E991E00E942A098823FB
:1003D00009F49BC089E991E00E943309882309F45C
:1003E00094C060915F0170916001683171050CF0FB
:1003F0008CC06F5F7F4F7093600160935F0184E8F2
:1004000091E04AE050E00E94240764EF71E080E050
:1004100090E01DC089E991E00E9433098823C9F06A
:1004200060915F01709160016831710594F46F5FB4
:100430007F4F7093600160935F0184E891E04AE030
:1004400050E00E94240766E970E080E090E00E949E
:100450008B038091A2019091A301019709F04EC0F6
:1004600084E891E060E043E00E94040889E991E0BB
:100470000E942A09882309F450C089E991E00E946A
:100480003309882309F449C06091610170916201C8
:1004900081E06C3278070CF040C06F5F7F4F709343
:1004A00062016093610184E891E04AE050E00E94BB
:1004B000240764EF71E080E090E01EC089E991E0DC
:1004C0000E9433098823D1F060916101709162012B
:1004D00081E06C32780794F46F5F7F4F7093620114
:1004E0006093610184E891E04AE050E00E942407B3
:1004F00066E970E080E090E00E948B036BE470E0BE
:1005000080E090E00E948B03089589E991E00E94C9
:100510002A09882309F09DCF7DCF89E991E00E94C7
:100520002A09882359F7CACF8FE991E00E9433093D
:100530008823E9F084E891E06FE042E00E9404083B
:1005400084E891E064E471E00E94370784E891E078
:100550006FE040E00E94040884E891E066E471E006
:100560000E94370784E891E060E041E022C08FE913
:1005700091E00E9433098823F1F084E891E06FE074
:1005800040E00E94040884E891E064E471E00E9485
:10059000370784E891E06FE042E00E94040884E8B5
:1005A00091E066E471E00E94370784E891E060E042
:1005B00043E00E9404086BE470E080E090E00E9459
:1005C0008B0308950E9494020E94D6010E94FC00B1
:1005D0000E94B2006BE470E080E090E00E948B0328
:1005E00008950F931F9304E811E0C80164E144E00B
:1005F00020E00E943B08C80168E471E00E943707D0
:10060000C80160E042E00E940408C80165E571E0AD
:100610000E943707C80160E041E00E940408609131
:100620005F0170916001C8014AE050E00E94240718
:10063000C80160E043E00E9404086091610170918C
:100640006201C8014AE050E00E9424071F910F9107
:10065000089585E392E040E855E260E070E00E9492
:10066000B3040E94F1020895CF93DF930E94EE033A
:100670000E942903C5E6D4E00E94E2022097E1F33C
:100680000E946504F9CF1F920F920FB60F921124AA
:100690002F933F938F939F93AF93BF938091A80124
:1006A0009091A901A091AA01B091AB013091AC0148
:1006B0000196A11DB11D232F2D5F2D3720F02D5741
:1006C0000196A11DB11D2093AC018093A8019093C8
:1006D000A901A093AA01B093AB018091A4019091CC
:1006E000A501A091A601B091A7010196A11DB11D80
:1006F0008093A4019093A501A093A601B093A701B4
:10070000BF91AF919F918F913F912F910F900FBE0D
:100710000F901F9018959B01AC017FB7F8948091C2
:10072000A4019091A501A091A601B091A70166B581
:10073000A89B05C06F3F19F00196A11DB11D7FBF99
:10074000BA2FA92F982F8827860F911DA11DB11DA3
:1007500062E0880F991FAA1FBB1F6A95D1F7BC01E1
:100760002DC0FFB7F8948091A4019091A501A091AC
:10077000A601B091A701E6B5A89B05C0EF3F19F00F
:100780000196A11DB11DFFBFBA2FA92F982F882751
:100790008E0F911DA11DB11DE2E0880F991FAA1FA8
:1007A000BB1FEA95D1F7861B970B885E9340C8F272
:1007B000215030404040504068517C4F2115310558
:1007C0004105510571F60895019739F0880F991F79
:1007D000880F991F02970197F1F70895789484B5CF
:1007E000826084BD84B5816084BD85B5826085BD2D
:1007F00085B5816085BDEEE6F0E080818160808313
:10080000E1E8F0E0108280818260808380818160F5
:100810008083E0E8F0E0808181608083E1EBF0E0BC
:10082000808184608083E0EBF0E080818160808360
:10083000EAE7F0E080818460808380818260808349
:100840008081816080838081806880831092C10074
:10085000089508951F920F920FB60F9211242F93AF
:100860003F934F938F939F93EF93FF938091C0009B
:1008700082FD1DC04091C6002091ED013091EE0136
:100880002F5F3F4F2F7330708091EF019091F001F7
:100890002817390771F0E091ED01F091EE01E35571
:1008A000FE4F40833093EE012093ED0102C0809112
:1008B000C600FF91EF919F918F914F913F912F91A2
:1008C0000F900FBE0F901F901895E0914102F0918C
:1008D0004202E05CFF4F8191919120813181821B26
:1008E000930B8F739070892B11F00E942904089547
:1008F0001F920F920FB60F9211242F933F938F9355
:100900009F93EF93FF9320913102309132028091B7
:100910003302909134022817390731F48091C100D5
:100920008F7D8093C10014C0E0913302F0913402B6
:10093000EF50FE4F20818091330290913402019656
:100940008F73907090933402809333022093C6008B
:10095000FF91EF919F918F913F912F910F900FBE3B
:100960000F901F901895AF92BF92DF92EF92FF9277
:100970000F931F93CF93DF93EC017A018B01DD245A
:10098000403081EE580780E0680780E0780711F07A
:10099000DD24D39491E0A92EB12CEC89FD89DD20D2
:1009A00069F0C50108A002C0880F991F0A94E2F7F8
:1009B000808360E079E08DE390E005C0108260E81C
:1009C00074E88EE190E0A80197010E94870A215007
:1009D000304040405040569547953795279580E1E7
:1009E0002030380720F0DD2011F0DD24D6CFE88953
:1009F000F9893083EA89FB89208319A2EE89FF896E
:100A0000408121E030E0C9010C8C02C0880F991FA1
:100A10000A94E2F7482B4083EE89FF894081C9019F
:100A20000D8C02C0880F991F0A94E2F7482B40836F
:100A3000EE89FF894081C9010E8C02C0880F991F81
:100A40000A94E2F7482B4083EE89FF8980810F8C5E
:100A500002C0220F331F0A94E2F720952823208337
:100A6000DF91CF911F910F91FF90EF90DF90BF909A
:100A7000AF900895DC011C96ED91FC911D97E05C10
:100A8000FF4F2191319180819181281B390B2F7368
:100A90003070C9010895DC011C96ED91FC911D9701
:100AA000E05CFF4F20813181E054F040DF01AE5B1C
:100AB000BF4F8D919C9111972817390719F42FEF8B
:100AC0003FEF07C08D919C91E80FF91F8081282F7F
:100AD00030E0C9010895DC011C96ED91FC911D9751
:100AE000E05CFF4F20813181E054F040DF01AE5BDC
:100AF000BF4F8D919C9111972817390719F42FEF4B
:100B00003FEF10C08D919C911197E80FF91F208144
:100B10008D919C91119701968F73907011969C9373
:100B20008E9330E0C9010895DC0191968C919197E4
:100B3000882339F05496ED91FC915597808186FF7A
:100B4000F9CF91961C920895CF93DF93EC01EE8537
:100B5000FF85E05CFF4F20813181E054F0402F5F42
:100B60003F4F2F733070DF01AE5BBF4F8D919C9173
:100B7000119728173907D1F3E05CFF4F80819181ED
:100B8000E054F040E80FF91F6083EE85FF85E05CDC
:100B9000FF4F31832083EE89FF89208181E090E03F
:100BA0000F8C02C0880F991F0A94E2F7282B20832C
:100BB00081E089A3EC89FD8980818064808381E064
:100BC00090E0DF91CF910895109238021092370291
:100BD00088EE93E0A0E0B0E08093390290933A026F
:100BE000A0933B02B0933C0287E691E090933602DB
:100BF000809335028DEA91E0909342028093410206
:100C000081EF91E0909344028093430285EC90E061
:100C1000909346028093450284EC90E090934802C2
:100C20008093470280EC90E090934A0280934902BF
:100C300081EC90E090934C0280934B0282EC90E028
:100C400090934E0280934D0286EC90E09093500278
:100C500080934F0284E08093510283E0809352029C
:100C600087E08093530285E08093540281E0809373
:100C700055020895CF92DF92EF92FF920F931F9348
:100C8000CF93DF937C016B018A01C0E0D0E00FC0FD
:100C9000D6016D916D01D701ED91FC910190F0812C
:100CA000E02DC7010995C80FD91F0150104001154B
:100CB000110571F7CE01DF91CF911F910F91FF9038
:100CC000EF90DF90CF900895CF93DF93EC01611503
:100CD000710519F420E030E00FC0DB010D90002019
:100CE000E9F71197A61BB70BE881F9810280F38120
:100CF000E02DAD0109959C01C901DF91CF910895C7
:100D00004F925F927F928F929F92AF92BF92CF92BB
:100D1000DF92EF92FF920F931F93DF93CF93CDB7A4
:100D2000DEB7A1970FB6F894DEBF0FBECDBF2C0182
:100D3000742ECB01223008F42AE019A231E2C32E2E
:100D4000D12CCC0EDD1E822E9924AA24BB24672D23
:100D5000752FA50194010E94870A79018A01C801B3
:100D6000B701A50194010E94680A472D461B08940B
:100D7000C108D1084A3014F4405D01C0495CF60155
:100D80004083E114F1040105110521F07E2C5F2D53
:100D9000C801DDCFC201B6010E946406A1960FB65C
:100DA000F894DEBF0FBECDBFCF91DF911F910F91A1
:100DB000FF90EF90DF90CF90BF90AF909F908F907B
:100DC0007F905F904F900895CF92DF92EF92FF92C5
:100DD0000F931F93CF93DF93EC016A017B012115E1
:100DE000310541F4E881F9810190F081E02D642F13
:100DF00009951FC02A303105D1F477FF17C0E8816B
:100E0000F9810190F081E02D6DE209958C01442774
:100E10005527BA014C195D096E097F09CE012AE0F8
:100E20000E9480069801280F391F04C02AE00E9402
:100E300080069C01C901DF91CF911F910F91FF9016
:100E4000EF90DF90CF900895EF92FF920F931F9352
:100E50007B019A010027F7FC0095102FB801A7012C
:100E60000E94E4061F910F91FF90EF9008950E9459
:100E7000640608950F931F938C01FC01868160E046
:100E80000E94C10981E090E00E94E403F80186819C
:100E900061E00E94C10981E090E00E94E403F80152
:100EA000868160E00E94C10984E690E00E94E4032C
:100EB0001F910F910895CF92DF92EF92FF920F93BF
:100EC0001F93CF93DF93D82EC92E282F392FC90116
:100ED0008C01C0E0D0E0E62EFF24F801878161E0BC
:100EE0000E948209B7010C2E02C0759567950A947D
:100EF000E2F76170F80187810E94C10921960F5FB6
:100F00001F4FC830D10549F78D2D9C2D0E943A07FF
:100F1000DF91CF911F910F91FF90EF90DF90CF90D5
:100F20000895CF92DF92EF92FF920F931F93CF938A
:100F3000DF93D82EC92E282F392FC9018C01C0E08C
:100F4000D0E0E62EFF24F801878161E00E9482094B
:100F5000B7010C2E02C0759567950A94E2F761708F
:100F6000F80187810E94C10921960F5F1F4FC4308D
:100F7000D10549F78D2D9C2D0E943A07DF91CF9125
:100F80001F910F91FF90EF90DF90CF9008951F93E6
:100F9000CF93DF93EC01162F8C81642F0E94C1093F
:100FA0008D818F3F19F060E00E94C1098F8584FF19
:100FB00005C0CE01612F0E945B070EC0612F70E05B
:100FC00084E0759567958A95E1F7CE010E949107B7
:100FD000CE01612F0E949107DF91CF911F9108955B
:100FE00041E00E94C70781E090E0089540E00E9440
:100FF000C7070895FC016089862F8460808B6C6030
:10100000CF010E94F6070895DF93CF93CDB7DEB7E7
:1010100028970FB6F894DEBF0FBECDBF9C01FE012E
:101020003196ABE7B1E088E00D9001928150E1F795
:10103000F9018389481710F0482F4150E42FF0E060
:10104000EE0FFF1FEC0FFD1F8181680F6068C90163
:101050000E94F60728960FB6F894DEBF0FBECDBFEC
:10106000CF91DF91089561E00E94F60780ED97E04F
:101070000E94E4030895CF93DF93EC01423018F00F
:101080008F8588608F874B8B1C8A222329F0413003
:1010900019F48F8584608F8780E593EC0E94E403C8
:1010A0008C8160E00E94C1098E8160E00E94C109CC
:1010B0008D818F3F19F060E00E94C1096F8564FD4A
:1010C0001DC0CE0163E00E94910784E991E10E9476
:1010D000E403CE0163E00E94910784E991E10E945C
:1010E000E403CE0163E00E94910786E990E00E944C
:1010F000E403CE0162E00E94910716C06062CE0157
:101100000E94F60784E991E10E94E4036F85606222
:10111000CE010E94F60786E990E00E94E4036F8505
:101120006062CE010E94F6076F856062CE010E9468
:10113000F60784E0888BCE010E94FA07CE010E9458
:10114000330882E0898BCE0166E00E94F607DF91CA
:10115000CF9108956F927F928F92AF92CF92EF923C
:101160000F931F93DF93CF93CDB7DEB73C01162FBC
:10117000842FF301448325830683E782C086A186FA
:1011800082869D8593879E8594879F85958798897C
:10119000968761E00E948209F30185818F3F19F0F3
:1011A00061E00E948209F301868161E00E94820968
:1011B000112319F0F301178603C080E1F30187873B
:1011C000C30160E141E020E00E943B08CF91DF9144
:1011D0001F910F91EF90CF90AF908F907F906F9075
:1011E00008958F92AF92CF92EF920F931F93CF9368
:1011F000DF93DC01362F542F722F102FAE2C8C2C46
:1012000013961C921E92129787E791E011969C9379
:101210008E9300D000D0EDB7FEB73196CDB7DEB7D4
:101220001982118212821382CD0161E0432F2FEFC8
:10123000052FE72EC12E0E94AA080F900F900F9045
:101240000F90DF91CF911F910F91EF90CF90AF90C2
:101250008F900895FC01828190E0969587959695F0
:10126000879581700895CF93DF93EC018A8180FF89
:1012700002C0826001C08D7F8A8388810E94150A26
:10128000298130E04A818217930711F44E7F01C013
:1012900041604A834A81242F30E0C90195958795A2
:1012A0008227932780FF02C0446001C04B7F4A839E
:1012B0008A818170DF91CF910895FC0181E0818363
:1012C000808161E00E94C10908951F93CF93DF934D
:1012D000EC01862F142F688360E00E94820911239D
:1012E00011F4198203C0CE010E945D091A8289811E
:1012F000882319F481E08A8301C01A82DF91CF919B
:101300001F910895CF93DF93482F50E0CA0186566E
:101310009F4FFC0134914A575F4FFA018491882313
:1013200069F190E0880F991FFC01E859FF4FA591E2
:10133000B491FC01EE58FF4FC591D491662351F44E
:101340002FB7F8948C91932F909589238C93888153
:1013500089230BC0623061F42FB7F8948C91932FDE
:10136000909589238C938881832B88832FBF06C017
:101370009FB7F8948C91832B8C939FBFDF91CF9173
:101380000895482F50E0CA0182559F4FFC012491D7
:10139000CA0186569F4FFC0194914A575F4FFA014C
:1013A0003491332309F440C0222351F1233071F0EA
:1013B000243028F42130A1F0223011F514C0263059
:1013C000B1F02730C1F02430D9F404C080918000FE
:1013D0008F7703C0809180008F7D8093800010C044
:1013E00084B58F7702C084B58F7D84BD09C080919C
:1013F000B0008F7703C08091B0008F7D8093B000E4
:10140000E32FF0E0EE0FFF1FEE58FF4FA591B491D0
:101410002FB7F894662321F48C919095892302C00C
:101420008C91892B8C932FBF0895682F70E0CB018E
:1014300082559F4FFC012491CB0186569F4FFC01A2
:1014400044916A577F4FFB019491992319F420E04E
:1014500030E03CC0222351F1233071F0243028F4D5
:101460002130A1F0223011F514C02630B1F0273020
:10147000C1F02430D9F404C0809180008F7703C07C
:10148000809180008F7D8093800010C084B58F771D
:1014900002C084B58F7D84BD09C08091B0008F7774
:1014A00003C08091B0008F7D8093B000892F90E0C1
:1014B000880F991F84589F4FFC01A591B4918C917E
:1014C00020E030E0842311F021E030E0C9010895EC
:1014D000629FD001739FF001829FE00DF11D649F18
:1014E000E00DF11D929FF00D839FF00D749FF00DA4
:1014F000659FF00D9927729FB00DE11DF91F639F45
:10150000B00DE11DF91FBD01CF0111240895A1E225
:101510001A2EAA1BBB1BFD010DC0AA1FBB1FEE1F6D
:10152000FF1FA217B307E407F50720F0A21BB30BB8
:10153000E40BF50B661F771F881F991F1A9469F734
:1015400060957095809590959B01AC01BD01CF0190
:101550000895EE0FFF1F0590F491E02D0994F89483
:02156000FFCFBB
:1015620055702053746174654368616E6765643AAF
:10157200200020446F776E20537461746543686164
:101582006E6765643A20002053656C65637420427F
:101592007574746F6E3A20002053656C6563743AFB
:1015A20020000A0020002300546F74616C20686FD1
:1015B2007572733A00496E74657276616C3A000115
:1015C20000010000000000A4053A063A056B054B35
:1015D20005940500000000F0073A060000400014E0
:0415E20000540000B1
:00000001FF
